:1000000027C040C03FC03EC03DC03EC23BC03AC01A
:1000100039C038C037C036C035C034C033C0010223
:100020000000040000000000010204081020200469
:100030001008020202020202020202020000000094
:1000400036000000000038000000000037007D008E
:1000500011241FBECFE5D2E0DEBFCDBF20E0A0E679
:10006000B0E001C01D92A838B207E1F710E0C0E58A
:10007000D0E003C02297FE019BD4CE34D107D1F744
:1000800060D39AC4BDCF4FEF5FEFBA0181E690E035
:100090009FD061E084E0E7D260E083E0E4C26EE1FB
:1000A00081E690E052D1209160006C3471058105A9
:1000B00091059CF0211120C060E083E00DD361E048
:1000C00083E0D1D261E084E007D381E080936000D7
:1000D00062E370E080E090E00EC0222369F060E00F
:1000E00083E0C1D260E084E0F7D21092600069E161
:1000F00070E080E090E042C2089540E061E081E677
:1001000090E000C0EF92FF920F931F93CF93DF9385
:10011000EC01E62EF42E21E030E03983288326E33B
:1001200031E03F832E8300EF1AEB24E030E00887B4
:1001300019872A873B8700E21EE420E030E00C8725
:100140001D872E873F8761E08E2D8DD260E08F2D39
:100150008AD260E08E2DC0D26E2D70E0FB01E85D8A
:10016000FF4FE491E88FFB01EE5CFF4FE491F0E07C
:10017000EE0FFF1FE45CFF4F259134913A8F298FDA
:100180004F2D50E0FA01E85DFF4FE491EB8FFA014B
:10019000EE5CFF4FE491F0E0EE0FFF1FE45CFF4FD9
:1001A000859194919D8F8C8F4FEF5FEF6FEF7FE084
:1001B0004A835B836C837D83B1D1688B798B8A8B17
:1001C0009B8BDF91CF911F910F91FF90EF9008953E
:1001D000FC0144875587668777870895CF93DF931F
:1001E000EC01F894E98DFA8D9281888D80958923B0
:1001F0008283EC8DFD8D91818B8D80958923818308
:10020000EC8DFD8D92818B8D809589238283EC8D81
:10021000FD8D81819B8D892B8183EC8DFD8D92815C
:100220008B8D8095892382838AE090E0DED1EC8DEE
:10023000FD8D91818B8D809589238183EC8DFD8D42
:1002400092818B8D809589238283E98DFA8D8281BD
:10025000988D892B82837894EC8DFD8D3B8D208148
:1002600023234C895D896E897F8988859985AA8534
:10027000BB85211106C0481759076A077B0708F498
:1002800047C084179507A607B70708F43EC0F8943F
:10029000EC8DFD8D82819B8D892B8283EC8DFD8D74
:1002A00081819B8D892B8183EC8DFD8D82819B8D3E
:1002B000892B8283EC8DFD8D91818B8D8095892397
:1002C0008183EC8DFD8D92818B8D80958923828336
:1002D000E98DFA8D9281888D809589238283789427
:1002E000EC8DFD8D3B8D208123234C895D896E89AA
:1002F0007F8988859985AA85BB85222391F0481737
:1003000059076A077B07A8F00CC08EEF9FEF1AC051
:100310004F5F5F4F6F4F7F4F4C8B5D8B6E8B7F8B33
:100320009ECF481759076A077B0778F781E090E06E
:1003300009C04F5F5F4F6F4F7F4F4C8B5D8B6E8B54
:100340007F8BD1CFDF91CF910895CF92DF92EF9243
:10035000FF920F931F93CF93DF931F92CDB7DEB71A
:100360008C01FC01148A158A168A178A662341F0CB
:100370008081918197FF08C06FEF7FEFCB017AC03A
:1003800060E070E0CB0176C0F12CC801698326DF04
:10039000698197FD5AC0F394F612F7CFBFD0F801E8
:1003A000C088D188E288F3886C197D098E099F097D
:1003B000C484D584E684F784C616D706E806F90611
:1003C00030F5C488D588E688F78862817381848196
:1003D0009581C616D706E806F90629F0C61AD70A87
:1003E000E80AF90A03C0C12CD12C7601E6D12DEC24
:1003F0003CEC4CEC5DE36FD2AFD1AB01662757FD0F
:100400006095762FC416D506E606F70618F1F801B2
:1004100084899589A689B789C280D380E480F580D4
:100420008C159D05AE05BF0520F482839383A483BC
:10043000B583F801C280D380E480F580BC01CD0192
:100440006C197D098E099F0915C06EEF7FEF8FEF44
:100450009FEF10C04FEF5FEF6FEF7FE0F801428337
:100460005383648375835AD0F801608B718B828BC0
:10047000938BCDCF0F90DF91CF911F910F91FF9074
:10048000EF90DF90CF9008951F920F920FB60F92CA
:1004900011242F933F938F939F93AF93BF9380919A
:1004A000800090918100A0918200B09183003091F2
:1004B0007F0026E0230F2D3720F40296A11DB11DE9
:1004C00005C029E8230F0396A11DB11D20937F00CD
:1004D0008093800090938100A0938200B09383006A
:1004E0008091840090918500A0918600B091870052
:1004F0000196A11DB11D8093840090938500A09367
:100500008600B0938700BF91AF919F918F913F91EB
:100510002F910F900FBE0F901F9018952FB7F89442
:1005200060918000709181008091820090918300A1
:100530002FBF08953FB7F894809184009091850073
:10054000A0918600B091870022B708B601FE05C0D1
:100550002F3F19F00196A11DB11D3FBF6627782FCF
:10056000892F9A2F620F711D811D911D43E0660F27
:10057000771F881F991F4A95D1F708958F929F92F0
:10058000AF92BF92CF92DF92EF92FF926B017C010C
:10059000D1DF4B015C01C114D104E104F104E1F0AD
:1005A000DAD0C8DF681979098A099B09683E734067
:1005B0008105910580F321E0C21AD108E108F10814
:1005C00088EE880E83E0981EA11CB11CC114D104D2
:1005D000E104F10431F7DFCFFF90EF90DF90CF908F
:1005E000BF90AF909F908F9008958330910528F031
:1005F000880F991F04970197F1F7089578948AB5A9
:1006000082608ABD8AB581608ABD83B7826083BFFC
:1006100083B7816083BF89B7826089BF80B78260FA
:1006200080BF80B7816080BF329A319A3098379A04
:100630000895823081F018F4813051F008958330AC
:1006400019F0843009F008958CB58F7D8CBD089524
:100650008AB58F7702C08AB58F7D8ABD08958CB523
:1006600080648CBD0895CF93DF9390E0FC01E85D3A
:10067000FF4F2491FC01EE5CFF4F8491882349F1E8
:1006800090E0880F991FFC01E85BFF4FA591B491A2
:100690008E5B9F4FFC01C591D4919FB7611108C03B
:1006A000F8948C91209582238C93888182230AC0B0
:1006B000623051F4F8948C91322F309583238C93CF
:1006C0008881822B888304C0F8948C91822B8C9330
:1006D0009FBFDF91CF9108950F931F93CF93DF9327
:1006E0001F92CDB7DEB7282F30E0F901E25EFF4F51
:1006F0008491F901E85DFF4F1491F901EE5CFF4F21
:1007000004910023C1F0882319F0698392DF698185
:10071000E02FF0E0EE0FFF1FEE5BFF4FA591B491CD
:100720009FB7F8948C91611103C01095812301C08B
:10073000812B8C939FBF0F90DF91CF911F910F91D1
:1007400008955CDF8CDF9FDCC0E0D0E0A8DC209760
:10075000E9F356DCFBCF089504D06894B111B5C01D
:10076000089598D088F09F5790F0B92F9927B751E6
:10077000A0F0D1F0660F771F881F991F1AF0BA9565
:10078000C9F712C0B13081F09FD0B1E008959CC08C
:10079000672F782F8827B85F39F0B93FCCF386955B
:1007A00077956795B395D9F73EF4909580957095B8
:1007B00061957F4F8F4F9F4F0895E89409C097FB35
:1007C0003EF490958095709561957F4F8F4F9F4F28
:1007D0009923A9F0F92F96E9BB279395F69587956C
:1007E00077956795B795F111F8CFFAF4BB0F11F42F
:1007F00060FF1BC06F5F7F4F8F4F9F4F16C08823D6
:1008000011F096E911C0772321F09EE8872F762F0B
:1008100005C0662371F096E8862F70E060E02AF04C
:100820009A95660F771F881FDAF7880F9695879538
:1008300097F9089597F99F6780E870E060E0089560
:100840009FEF80EC089500240A94161617061806E8
:100850000906089500240A941216130614060506C4
:100860000895092E0394000C11F4882352F0BB0F55
:1008700040F4BF2B11F460FF04C06F5F7F4F8F4FB8
:100880009F4F089557FD9058440F551F59F05F3FF3
:1008900071F04795880F97FB991F61F09F3F79F0A2
:1008A00087950895121613061406551FF2CF469524
:1008B000F1DF08C0161617061806991FF1CF8695A6
:1008C0007105610508940895E894BB27662777278A
:1008D000CB0197F908950AD0C4CFB5DF28F0BADF6D
:1008E00018F0952309F0A6CFABCFEFCFCBDFA8F35D
:1008F0009923D9F35523C9F3950F50E0551FAA2723
:10090000EE27FF27BB2700240894679520F4E20F09
:10091000F31FB41F0A1E220F331F441FAA1F669520
:10092000A9F7779530F4F30FB41F0A1E121E08F4CE
:100930006395330F441FAA1F221F769599F7879559
:1009400020F4B40F0A1E121E631F440FAA1F221F99
:10095000331F8695A9F7862F712D602D11249F577F
:1009600050408AF0E1F088234AF0EE0FFF1FBB1FD2
:10097000661F771F881F91505040A9F79E3F510571
:1009800070F058CFA2CF5F3FECF3983EDCF3869532
:1009900077956795B795F795E7959F5FC1F7FE2B1C
:1009A000880F911D9695879597F90895EE0FFF1F73
:0C09B0000590F491E02D0994F894FFCF1D
:00000001FF
